:100000000C9463000C9427030C9454030C948B0001
:100010000C948B000C948B000C948B000C948B0034
:100020000C948B000C948B000C948B000C948B0024
:100030000C948B000C948B000C948B000C948B0014
:100040000C9481030C948B000C948D000C94C800CC
:100050000C948B000C948B000C948B000C948B00F4
:100060000C948B000C948B000000000024002700EF
:100070002A0000000000250028002B0000000000DE
:1000800023002600290004040404040404040202DA
:100090000202020203030303030301020408102007
:1000A0004080010204081020010204081020000012
:1000B0000007000201000003040600000000000029
:1000C0000000AD01030211241FBECFEFD8E0DEBF58
:1000D000CDBF11E0A0E0B1E0EEE6FEE002C0059089
:1000E0000D92AC32B107D9F711E0ACE2B1E001C03A
:1000F0001D92AF3EB107E1F710E0C6ECD0E004C0BE
:100100002297FE010E943107C23CD107C9F70E9425
:1001100065050C9435070C9400001F920F920FB6E2
:100120000F9211242F933F934F938F939F93EF93AD
:10013000FF938091C00082FD1DC04091C6002091B8
:100140006C0130916D012F5F3F4F2F7330708091A4
:100150006E0190916F012817390771F0E0916C01E1
:10016000F0916D01E45DFE4F408330936D0120936B
:100170006C0102C08091C600FF91EF919F918F9119
:100180004F913F912F910F900FBE0F901F90189598
:100190001F920F920FB60F9211242F933F938F93BC
:1001A0009F93EF93FF932091B0013091B101809123
:1001B000B2019091B3012817390731F48091C10041
:1001C0008F7D8093C10014C0E091B201F091B30122
:1001D000E059FE4F20818091B2019091B3010196C8
:1001E0008F7390709093B3018093B2012093C600F7
:1001F000FF91EF919F918F913F912F910F900FBEA3
:100200000F901F901895DC011C96ED91FC911D97A5
:10021000E05CFF4F2191319180819181281B390B46
:100220002F733070C9010895DC011C96ED91FC918B
:100230001D97E05CFF4F20813181E054F040DF01E9
:10024000AE5BBF4F8D919C9111972817390719F418
:100250002FEF3FEF07C08D919C91E80FF91F808130
:10026000282F30E0C9010895DC011C96ED91FC9126
:100270001D97E05CFF4F20813181E054F040DF01A9
:10028000AE5BBF4F8D919C9111972817390719F4D8
:100290002FEF3FEF10C08D919C911197E80FF91F40
:1002A00020818D919C91119701968F73907011967A
:1002B0009C938E9330E0C9010895DC0191968C9156
:1002C0009197882339F05496ED91FC915597808150
:1002D00086FFF9CF91961C920895CF93DF93EC019E
:1002E000EE85FF85E05CFF4F20813181E054F040D6
:1002F0002F5F3F4F2F733070DF01AE5BBF4F8D918B
:100300009C91119728173907D1F3E05CFF4F80814A
:100310009181E054F040E80FF91F6083EE85FF857E
:10032000E05CFF4F31832083EE89FF89208181E0EB
:1003300090E00F8C02C0880F991F0A94E2F7282BD7
:10034000208381E089A3EC89FD898081806480839A
:1003500081E090E0DF91CF9108951092B701109263
:10036000B60188EE93E0A0E0B0E08093B8019093EE
:10037000B901A093BA01B093BB0188E191E09093D9
:10038000B5018093B4018CE291E09093C101809318
:10039000C00180E791E09093C3018093C20185EC96
:1003A00090E09093C5018093C40184EC90E0909319
:1003B000C7018093C60180EC90E09093C9018093BF
:1003C000C80181EC90E09093CB018093CA0182EC4C
:1003D00090E09093CD018093CC0186EC90E09093D7
:1003E000CF018093CE0184E08093D00183E080939D
:1003F000D10187E08093D20185E08093D30181E031
:100400008093D401089588E291E09093D70180937E
:10041000D6011092D8011092D9011092DA011092EF
:10042000DB0108958F929F92AF92BF92CF92DF929D
:10043000EF92FF920F931F93CF93DF934C016B01C9
:100440007C01AA24BB24C0E0D0E0C601F701628190
:100450004AE050E00E9415038C01C6016EE20E9442
:100460007E02080F191FA00EB11E21960894E11CF0
:10047000F11CC330D10549F7C601F40165814AE09A
:1004800050E00E9415039501280F391FC901DF9123
:10049000CF911F910F91FF90EF90DF90CF90BF9081
:1004A000AF909F908F900895CF92DF92EF92FF923E
:1004B0000F931F93CF93DF937C016B018A01C0E000
:1004C000D0E00FC0D6016D916D01D701ED91FC9187
:1004D0000190F081E02DC7010995C80FD91F015087
:1004E00010400115110571F7CE01DF91CF911F91D9
:1004F0000F91FF90EF90DF90CF900895DC01ED9188
:10050000FC910190F081E02D09950895CF93DF9340
:10051000EC016115710519F420E030E00FC0DB013A
:100520000D900020E9F71197A61BB70BE881F98120
:100530000280F381E02DAD0109959C01C901DF9195
:10054000CF9108954F925F927F928F929F92AF9238
:10055000BF92CF92DF92EF92FF920F931F93DF93A0
:10056000CF93CDB7DEB7A1970FB6F894DEBF0FBE1D
:10057000CDBF2C01742ECB01223008F42AE019A241
:1005800031E2C32ED12CCC0EDD1E822E9924AA245A
:10059000BB24672D752FA50194010E940D077901D9
:1005A0008A01C801B701A50194010E94EE06472DFA
:1005B000461B0894C108D1084A3014F4405D01C0BC
:1005C000495CF6014083E114F1040105110521F0B5
:1005D0007E2C5F2DC801DDCFC201B6010E948602CC
:1005E000A1960FB6F894DEBF0FBECDBFCF91DF91BD
:1005F0001F910F91FF90EF90DF90CF90BF90AF9041
:100600009F908F907F905F904F900895DC0121150F
:10061000310541F4ED91FC910190F081E02D642FC2
:10062000099508950E94A2020895EF92FF920F93F8
:100630001F939A01E62EFF2400E010E0B801A70105
:100640000E9406031F910F91FF90EF9008951F9253
:100650000F920FB60F9211242F933F934F935F93F6
:100660006F937F938F939F93AF93BF93EF93FF937A
:100670008091DC019091DD01892B29F0E091DC0172
:10068000F091DD010995FF91EF91BF91AF919F919D
:100690008F917F916F915F914F913F912F910F902B
:1006A0000FBE0F901F9018951F920F920FB60F92CA
:1006B00011242F933F934F935F936F937F938F9367
:1006C0009F93AF93BF93EF93FF938091DE0190913F
:1006D000DF01892B29F0E091DE01F091DF0109951E
:1006E000FF91EF91BF91AF919F918F917F916F910A
:1006F0005F914F913F912F910F900FBE0F901F90E0
:1007000018951F920F920FB60F9211242F933F93BB
:100710008F939F93AF93BF938091E4019091E501F4
:10072000A091E601B091E7013091E8010196A11D89
:10073000B11D232F2D5F2D3720F02D570196A11DC0
:10074000B11D2093E8018093E4019093E501A0930B
:10075000E601B093E7018091E0019091E101A09161
:10076000E201B091E3010196A11DB11D8093E0016A
:100770009093E101A093E201B093E301BF91AF91A7
:100780009F918F913F912F910F900FBE0F901F90CF
:1007900018959FB7F8942091E0013091E1014091C4
:1007A000E2015091E30186B5A89B06C08F3F21F07E
:1007B0002F5F3F4F4F4F5F4F9FBF542F432F322F1D
:1007C0002227280F311D411D511D82E0220F331FAA
:1007D000441F551F8A95D1F7B901CA01089578942D
:1007E00084B5826084BD84B5816084BD85B5826036
:1007F00085BD85B5816085BDEEE6F0E080818160D4
:100800008083E1E8F0E010828081826080838081D3
:1008100081608083E0E8F0E0808181608083E1EBAB
:10082000F0E0808184608083E0EBF0E08081816093
:100830008083EAE7F0E08081846080838081826049
:100840008083808181608083808180688083109232
:10085000C1000895CF93DF93482F50E0CA01865618
:100860009F4FFC0134914A575F4FFA0184918823CE
:1008700069F190E0880F991FFC01E859FF4FA5919D
:10088000B491FC01EE58FF4FC591D491662351F409
:100890002FB7F8948C91932F909589238C9388810E
:1008A00089230BC0623061F42FB7F8948C91932F99
:1008B000909589238C938881832B88832FBF06C0D2
:1008C0009FB7F8948C91832B8C939FBFDF91CF912E
:1008D0000895482F50E0CA0182559F4FFC01249192
:1008E000CA0186569F4FFC0194914A575F4FFA0107
:1008F0003491332309F440C0222351F1233071F0A5
:10090000243028F42130A1F0223011F514C0263013
:10091000B1F02730C1F02430D9F404C080918000B8
:100920008F7703C0809180008F7D8093800010C0FE
:1009300084B58F7702C084B58F7D84BD09C0809156
:10094000B0008F7703C08091B0008F7D8093B0009E
:10095000E32FF0E0EE0FFF1FEE58FF4FA591B4918B
:100960002FB7F894662321F48C919095892302C0C7
:100970008C91892B8C932FBF089508950895109220
:10098000EE011092ED011092E9011092EA0110922D
:10099000EB011092EC018091000161E00E942A04B9
:1009A00008956F927F928F929F92AF92BF92CF9253
:1009B000DF92EF92FF920F931F93E090E901F09086
:1009C000EA010091EB011091EC01C801B7010E940E
:1009D0003A063B014C0120910C0130910D014091F0
:1009E0000E0150910F010E94080688235CF417FD48
:1009F00009C0A0900401B0900501C0900601D090FC
:100A000007010AC00F2EF0E0AF2EF0E0BF2EF0E09D
:100A1000CF2EF0E0DF2EF02D6091080170910901DA
:100A200080910A0190910B0120E030E040E85FE303
:100A30000E94A3059B01AC01C401B3010E94EA0618
:100A400088234CF01092E9011092EA011092EB0118
:100A50001092EC010DC00894E11CF11C011D111D48
:100A6000E092E901F092EA010093EB011093EC01AE
:100A7000C601B50120E030E040E853E40E940806DA
:100A800087FD02C06FEF10C0C601B50120E030E065
:100A900040E050E00E94EA0687FF02C060E004C028
:100AA000C601B5010E940C06809100010E946904F4
:100AB0001F910F91FF90EF90DF90CF90BF90AF907C
:100AC0009F908F907F906F900895AF92BF92CF923A
:100AD000DF92EF92FF920F931F93CF93DF930E94C9
:100AE000EF030E94BF04C0912A01D0912B01AA24D8
:100AF000BB24650115C00E94C9037B018C01DC0188
:100B0000CB018A199B09AC09BD09805A9648A140BE
:100B1000B04030F00E94D1040E94BD04570168012A
:100B200088819981892B39F30E94BE0480E090E08E
:100B3000DF91CF911F910F91FF90EF90DF90CF90B9
:100B4000BF90AF9008955058BB27AA270ED008C178
:100B5000F9D030F0FED020F031F49F3F11F41EF4B4
:100B6000EEC00EF4E095E7FBE4C0E92F0AD180F374
:100B7000BA17620773078407950718F071F49EF59A
:100B800022C10EF4E0950B2EBA2FA02D0B01B90156
:100B900090010C01CA01A0011124FF27591B99F0F3
:100BA000593F50F4503E68F11A16F040A22F232FFF
:100BB000342F4427585FF3CF469537952795A7954F
:100BC000F0405395C9F77EF41F16BA0B620B730BF6
:100BD000840BBAF09150A1F0FF0FBB1F661F771F67
:100BE000881FC2F70EC0BA0F621F731F841F48F41C
:100BF000879577956795B795F7959E3F08F0B3CFA2
:100C00009395880F08F09927EE0F9795879508958B
:100C10006CD008F481E00895BCD088F09F5790F024
:100C2000B92F9927B751A0F0D1F0660F771F881F11
:100C3000991F1AF0BA95C9F712C0B13081F0C3D02C
:100C4000B1E00895C0C0672F782F8827B85F39F0CA
:100C5000B93FCCF3869577956795B395D9F73EF470
:100C600090958095709561957F4F8F4F9F4F089518
:100C7000E89409C097FB3EF4909580957095619536
:100C80007F4F8F4F9F4F9923A9F0F92F96E9BB27EC
:100C90009395F695879577956795B795F111F8CF68
:100CA000FAF4BB0F11F460FF1BC06F5F7F4F8F4FD3
:100CB0009F4F16C0882311F096E911C0772321F0C9
:100CC0009EE8872F762F05C0662371F096E8862F61
:100CD00070E060E02AF09A95660F771F881FDAF7B8
:100CE000880F9695879597F90895990F0008550FE5
:100CF000AA0BE0E8FEEF16161706E807F907C0F0A2
:100D000012161306E407F50798F0621B730B840BA9
:100D1000950B39F40A2661F0232B242B252B21F483
:100D200008950A2609F4A140A6958FEF811D811D23
:100D3000089597F99F6780E870E060E008959FEF5D
:100D400080EC089500240A94161617061806090662
:100D5000089500240A941216130614060506089531
:100D6000092E0394000C11F4882352F0BB0F40F4B9
:100D7000BF2B11F460FF04C06F5F7F4F8F4F9F4FF9
:100D8000089557FD9058440F551F59F05F3F71F07B
:100D90004795880F97FB991F61F09F3F79F08795E2
:100DA0000895121613061406551FF2CF4695F1DF6B
:100DB00008C0161617061806991FF1CF86957105FB
:100DC000610508940895E894BB2766277727CB012F
:100DD00097F908958ADF08F48FEF0895629FD00194
:100DE000739FF001829FE00DF11D649FE00DF11DE6
:100DF000929FF00D839FF00D749FF00D659FF00D95
:100E00009927729FB00DE11DF91F639FB00DE11D81
:100E1000F91FBD01CF0111240895A1E21A2EAA1BCA
:100E2000BB1BFD010DC0AA1FBB1FEE1FFF1FA2179A
:100E3000B307E407F50720F0A21BB30BE40BF50B97
:100E4000661F771F881F991F1A9469F76095709520
:100E5000809590959B01AC01BD01CF010895EE0FE7
:0E0E6000FF1F0590F491E02D0994F894FFCF48
:100E6E000D0000000000803F000020410000A04067
:100E7E0000000000000000006D0154020301340167
:0C0E8E0014015D01000000001202ED01E3
:00000001FF
