:100000000C9463000C94AE030C94DB030C948B00F3
:100010000C948B000C948B000C948B000C948B0034
:100020000C948B000C948B000C948B000C948B0024
:100030000C948B000C948B000C948B000C948B0014
:100040000C9408040C948B000C948D000C94C80044
:100050000C948B000C948B000C948B000C948B00F4
:100060000C948B000C948B000000000024002700EF
:100070002A0000000000250028002B0000000000DE
:1000800023002600290004040404040404040202DA
:100090000202020203030303030301020408102007
:1000A0004080010204081020010204081020000012
:1000B0000007000201000003040600000000000029
:1000C000000034028A0211241FBECFEFD8E0DEBF49
:1000D000CDBF11E0A0E0B1E0ECE8F5E102C0059091
:1000E0000D92A633B107D9F712E0A6E3B1E001C043
:1000F0001D92AF30B107E1F710E0C6ECD0E004C0CC
:100100002297FE010E94C00AC23CD107C9F70E9493
:1001100055070C94C40A0C9400001F920F920FB65E
:100120000F9211242F933F934F938F939F93EF93AD
:10013000FF938091C00082FD1DC04091C6002091B8
:100140007601309177012F5F3F4F2F733070809190
:100150007801909179012817390771F0E0917601C3
:10016000F0917701EA5CFE4F408330937701209352
:10017000760102C08091C600FF91EF919F918F910F
:100180004F913F912F910F900FBE0F901F90189598
:100190001F920F920FB60F9211242F933F938F93BC
:1001A0009F93EF93FF932091BA013091BB0180910F
:1001B000BC019091BD012817390731F48091C1002D
:1001C0008F7D8093C10014C0E091BC01F091BD010E
:1001D000E658FE4F20818091BC019091BD010196AF
:1001E0008F7390709093BD018093BC012093C600E3
:1001F000FF91EF919F918F913F912F910F900FBEA3
:100200000F901F901895AF92BF92DF92EF92FF92DE
:100210000F931F93CF93DF93EC017A018B01DD24C1
:10022000403081EE580780E0680780E0780711F0E1
:10023000DD24D39491E0A92EB12CEC89FD89DD2039
:1002400069F0C50108A002C0880F991F0A94E2F75F
:10025000808360E079E08DE390E005C0108260E883
:1002600074E88EE190E0A80197010E949C0A215059
:10027000304040405040569547953795279580E14E
:100280002030380720F0DD2011F0DD24D6CFE889BA
:10029000F9893083EA89FB89208319A2EE89FF89D5
:1002A000408121E030E0C9010C8C02C0880F991F09
:1002B0000A94E2F7482B4083EE89FF894081C90107
:1002C0000D8C02C0880F991F0A94E2F7482B4083D7
:1002D000EE89FF894081C9010E8C02C0880F991FE9
:1002E0000A94E2F7482B4083EE89FF8980810F8CC6
:1002F00002C0220F331F0A94E2F72095282320839F
:10030000DF91CF911F910F91FF90EF90DF90BF9001
:10031000AF900895DC011C96ED91FC911D97E05C77
:10032000FF4F2191319180819181281B390B2F73CF
:100330003070C9010895DC011C96ED91FC911D9768
:10034000E05CFF4F20813181E054F040DF01AE5B83
:10035000BF4F8D919C9111972817390719F42FEFF2
:100360003FEF07C08D919C91E80FF91F8081282FE6
:1003700030E0C9010895DC011C96ED91FC911D97B8
:10038000E05CFF4F20813181E054F040DF01AE5B43
:10039000BF4F8D919C9111972817390719F42FEFB2
:1003A0003FEF10C08D919C911197E80FF91F2081AC
:1003B0008D919C91119701968F73907011969C93DB
:1003C0008E9330E0C9010895DC0191968C9191974C
:1003D000882339F05496ED91FC915597808186FFE2
:1003E000F9CF91961C920895CF93DF93EC01EE859F
:1003F000FF85E05CFF4F20813181E054F0402F5FAA
:100400003F4F2F733070DF01AE5BBF4F8D919C91DA
:10041000119728173907D1F3E05CFF4F8081918154
:10042000E054F040E80FF91F6083EE85FF85E05C43
:10043000FF4F31832083EE89FF89208181E090E0A6
:100440000F8C02C0880F991F0A94E2F7282B208393
:1004500081E089A3EC89FD8980818064808381E0CB
:1004600090E0DF91CF9108951092C1011092C001E8
:1004700088EE93E0A0E0B0E08093C2019093C301C6
:10048000A093C401B093C50181E291E09093BF01B4
:100490008093BE0186E391E09093CB018093CA01E3
:1004A0008AE791E09093CD018093CC0185EC90E0B8
:1004B0009093CF018093CE0184EC90E09093D10192
:1004C0008093D00180EC90E09093D3018093D2018F
:1004D00081EC90E09093D5018093D40182EC90E080
:1004E0009093D7018093D60186EC90E09093D90148
:1004F0008093D80184E08093DA0183E08093DB016C
:1005000087E08093DC0185E08093DD0181E08093CA
:10051000DE01089581E391E09093E1018093E00191
:100520001092E2011092E3011092E4011092E501B1
:1005300008958F929F92AF92BF92CF92DF92EF92E7
:10054000FF920F931F93CF93DF934C016B017C01BC
:10055000AA24BB24C0E0D0E0C601F70162814AE0D2
:1005600050E00E949C038C01C6016EE20E940503CC
:10057000080F191FA00EB11E21960894E11CF11C52
:10058000C330D10549F7C601F40165814AE050E066
:100590000E949C039501280F391FC901DF91CF915B
:1005A0001F910F91FF90EF90DF90CF90BF90AF9091
:1005B0009F908F900895CF92DF92EF92FF920F93CA
:1005C0001F93CF93DF937C016B018A01C0E0D0E0E1
:1005D0000FC0D6016D916D01D701ED91FC91019095
:1005E000F081E02DC7010995C80FD91F01501040B7
:1005F0000115110571F7CE01DF91CF911F910F9178
:10060000FF90EF90DF90CF900895DC01ED91FC9189
:100610000190F081E02D09950895CF93DF93EC01CF
:100620006115710519F420E030E00FC0DB010D9079
:100630000020E9F71197A61BB70BE881F98102802A
:10064000F381E02DAD0109959C01C901DF91CF91A6
:1006500008954F925F927F928F929F92AF92BF9236
:10066000CF92DF92EF92FF920F931F93DF93CF937E
:10067000CDB7DEB7A1970FB6F894DEBF0FBECDBFE2
:100680002C01742ECB01223008F42AE019A231E2A9
:10069000C32ED12CCC0EDD1E822E9924AA24BB247D
:1006A000672D752FA50194010E949C0A79018A018A
:1006B000C801B701A50194010E947D0A472D461B80
:1006C0000894C108D1084A3014F4405D01C0495C67
:1006D000F6014083E114F1040105110521F07E2C9F
:1006E0005F2DC801DDCFC201B6010E940D03A196A6
:1006F0000FB6F894DEBF0FBECDBFCF91DF911F9133
:100700000F91FF90EF90DF90CF90BF90AF909F90B0
:100710008F907F905F904F900895DC0121153105F7
:1007200041F4ED91FC910190F081E02D642F099549
:1007300008950E9429030895EF92FF920F931F934B
:100740009A01E62EFF2400E010E0B801A7010E9404
:100750008D031F910F91FF90EF9008951F920F92BC
:100760000FB60F9211242F933F934F935F936F9384
:100770007F938F939F93AF93BF93EF93FF9380915A
:10078000E6019091E701892B29F0E091E601F091D3
:10079000E7010995FF91EF91BF91AF919F918F91E3
:1007A0007F916F915F914F913F912F910F900FBE6D
:1007B0000F901F9018951F920F920FB60F92112451
:1007C0002F933F934F935F936F937F938F939F9359
:1007D000AF93BF93EF93FF938091E8019091E9016C
:1007E000892B29F0E091E801F091E9010995FF9149
:1007F000EF91BF91AF919F918F917F916F915F9199
:100800004F913F912F910F900FBE0F901F90189511
:100810001F920F920FB60F9211242F933F938F9335
:100820009F93AF93BF938091EE019091EF01A091C0
:10083000F001B091F1013091F2010196A11DB11DBD
:10084000232F2D5F2D3720F02D570196A11DB11DAF
:100850002093F2018093EE019093EF01A093F001B9
:10086000B093F1018091EA019091EB01A091EC012C
:10087000B091ED010196A11DB11D8093EA01909305
:10088000EB01A093EC01B093ED01BF91AF919F916B
:100890008F913F912F910F900FBE0F901F90189541
:1008A0009FB7F8942091EA013091EB014091EC015F
:1008B0005091ED0186B5A89B06C08F3F21F02F5FB8
:1008C0003F4F4F4F5F4F9FBF542F432F322F222751
:1008D000280F311D411D511D82E0220F331F441F7F
:1008E000551F8A95D1F7B901CA010895789484B546
:1008F000826084BD84B5816084BD85B5826085BD1C
:1009000085B5816085BDEEE6F0E080818160808301
:10091000E1E8F0E0108280818260808380818160E4
:100920008083E0E8F0E0808181608083E1EBF0E0AB
:10093000808184608083E0EBF0E08081816080834F
:10094000EAE7F0E080818460808380818260808338
:100950008081816080838081806880831092C10063
:100960000895982F8E3008F09E5097708091000166
:100970008295880F880F807C892B80937C008091E2
:100980007A00806480937A0080917A0086FDFCCFA3
:100990002091780040917900942F80E030E0282B5E
:1009A000392BC9010895CF93DF93482F50E0CA0136
:1009B00086569F4FFC0134914A575F4FFA0184914C
:1009C000882369F190E0880F991FFC01E859FF4FD7
:1009D000A591B491FC01EE58FF4FC591D4916623C7
:1009E00051F42FB7F8948C91932F909589238C9381
:1009F000888189230BC0623061F42FB7F8948C9101
:100A0000932F909589238C938881832B88832FBF84
:100A100006C09FB7F8948C91832B8C939FBFDF9176
:100A2000CF910895862F60E00E94D30408958EEB45
:100A300091E00E94DB0208958EEB91E00E94030199
:100A400008958091F6018F5F8093F6018A3010F04F
:100A50001092F6010895089584E090E00E94EF0757
:100A60001092F3011092F4011092F5011092F60128
:100A70006091110170911201809113019091140104
:100A80000E94120560911501709116018091170165
:100A9000909118010E9412056091190170911A013C
:100AA00080911B0190911C010E94120508954F92A4
:100AB0005F926F927F929F92AF92BF92CF92DF929E
:100AC000EF92FF920F931F93DF93CF9300D00F927B
:100AD000CDB7DEB78091F601882309F0D3C18091AC
:100AE00011010E94B1047C01809115010E94B104A2
:100AF0003C01809119010E94B1042C0100E010E03A
:100B0000C801B7010E94C1082091090130910A0172
:100B100040910B0150910C010E942C0820910D0175
:100B200030910E0140910F01509110010E941A0A5C
:100B30009B01AC0160910501709106018091070154
:100B4000909108010E942C087B018C015B016C01D3
:100B5000E894D7F8C601B50120E030E040E859E557
:100B60000E9491088823FCF4C601B50120E030E022
:100B700040E05FE30E94160A88235CF0C801B701D9
:100B800020E030E040E05FE30E942D080E94FE0874
:100B900008C0C801B70120E030E040E050E00E940A
:100BA0001A0A7B018C01C801B7010E94E40788235F
:100BB00009F047C1C801B7010E94B907882309F0AD
:100BC00040C1C801B70120E030E040E853E40E9492
:100BD00018099B01AC01CB01DA017C018D01B9013F
:100BE000CA0120E030E040E050E00E9491088823F4
:100BF00044F4C801B70190580E949508962E91942C
:100C000005C0C801B7010E949508962EB30180E087
:100C100090E00E94C1082091090130910A014091A1
:100C20000B0150910C010E942C0820910D01309174
:100C30000E0140910F01509110010E941A0A9B0170
:100C4000AC016091050170910601809107019091BE
:100C500008010E942C087B018C015B016C01E89467
:100C6000D7F8C601B50120E030E040E859E50E9420
:100C700091088823FCF4C601B50120E030E040E093
:100C80005FE30E94160A88235CF0C801B70120E0E8
:100C900030E040E05FE30E942D080E94FE0808C09B
:100CA000C801B70120E030E040E050E00E941A0A9D
:100CB0007B018C019982C801B7010E94E407882357
:100CC00009F0CAC0C801B7010E94B907882309F01A
:100CD000C3C0C801B70120E030E040E853E40E94FF
:100CE00018099B01AC01CB01DA017C018D01B9012E
:100CF000CA0120E030E040E050E00E9491088823E3
:100D000044F4C801B70190580E949508962E91941A
:100D100005C0C801B7010E949508962EB20180E077
:100D200090E00E94C1082091090130910A01409190
:100D30000B0150910C010E942C0820910D01309163
:100D40000E0140910F01509110010E941A0A9B015F
:100D5000AC016091050170910601809107019091AD
:100D600008010E942C087B018C015B016C01E89456
:100D7000D7F8C601B50120E030E040E859E50E940F
:100D800091088823FCF4C601B50120E030E040E082
:100D90005FE30E94160A88235CF0C801B70120E0D7
:100DA00030E040E05FE30E942D080E94FE0808C08A
:100DB000C801B70120E030E040E050E00E941A0A8C
:100DC0007B018C019A82C801B7010E94E407882345
:100DD00009F04DC0C801B7010E94B907882309F086
:100DE00046C0C801B70120E030E040E853E40E946B
:100DF00018099B01AC01CB01DA017C018D01B9011D
:100E0000CA0120E030E040E050E00E9491088823D1
:100E10003CF4C801B70190580E949508619504C040
:100E2000C801B7010E9495086B83809101019091E0
:100E30000201BE016F5F7F4F43E050E00E94170543
:100E400021C00F2EF0E0EF2EF0E0FF2EF0E00F2F8C
:100E5000F0E01F2FF02DD5CE0F2EF0E0EF2EF0E0BA
:100E6000FF2EF0E00F2FF0E01F2FF02D52CF0F2EAE
:100E7000F0E0EF2EF0E0FF2EF0E00F2FF0E01F2F5C
:100E8000F02DCECF0F900F900F90CF91DF911F914B
:100E90000F91FF90EF90DF90CF90BF90AF909F9019
:100EA0007F906F905F904F900895AF92BF92CF92D6
:100EB000DF92EF92FF920F931F93CF93DF930E94E5
:100EC00076040E942C0580E090E040E855E260E066
:100ED00070E00E941C05C0913301D0913401AA2416
:100EE000BB24650115C00E9450047B018C01DC010C
:100EF000CB018A199B09AC09BD0980519742A040DA
:100F0000B04030F00E9457050E942105570168014A
:100F100088819981892B39F30E942B0580E090E02C
:100F2000DF91CF911F910F91FF90EF90DF90CF90C5
:100F3000BF90AF90089560E070E080E89FE708956B
:100F400060E070E080E89FE7089560E070E080E88E
:100F50009FEF089560E070E080E89FEF089560E003
:100F600070E080EC9FEF089560E070E080EC9FEF10
:100F70000895DF92EF92FF920F931F937B018C01F4
:100F80002091FF0130910002409101025091020234
:100F90000E949108882379F0DD24C801B7012091CF
:100FA0000702309108024091090250910A020E9402
:100FB0009108882311F4DD24D3948D2D1F910F9176
:100FC000FF90EF90DF9008951F939B01AC0110E01C
:100FD0000E949108811111E0812F1F9108950E94B4
:100FE000AF0760930302709304028093050290930D
:100FF00006020E94B4076093F7017093F801809392
:10100000F9019093FA010E949B076093FF0170938E
:10101000000280930102909302020E94A007609355
:10102000FB017093FC018093FD019093FE010E94EF
:10103000A5076093070270930802809309029093BA
:101040000A020E94AA0760930B0270930C0280931D
:101050000D0290930E0208955058BB27AA270ED078
:1010600094C185D130F08AD120F031F49F3F11F442
:101070001EF47AC10EF4E095E7FB45C1E92F96D145
:1010800080F3BA17620773078407950718F071F4A5
:101090009EF5C5C10EF4E0950B2EBA2FA02D0B01C5
:1010A000B90190010C01CA01A0011124FF27591BAD
:1010B00099F0593F50F4503E68F11A16F040A22FB3
:1010C000232F342F4427585FF3CF46953795279524
:1010D000A795F0405395C9F77EF41F16BA0B620B23
:1010E000730B840BBAF09150A1F0FF0FBB1F661F6A
:1010F000771F881FC2F70EC0BA0F621F731F841FAD
:1011000048F4879577956795B795F7959E3F08F0D2
:10111000B3CF9395880F08F09927EE0F9795879591
:101120000895CDD008F481E0089548D188F09F5704
:1011300090F0B92F9927B751A0F0D1F0660F771F23
:10114000881F991F1AF0BA95C9F712C0B13081F003
:1011500066D1B1E0089563C1672F782F8827B85F03
:1011600039F0B93FCCF3869577956795B395D9F764
:101170003EF490958095709561957F4F8F4F9F4F6E
:101180000895E89409C097FB3EF49095809570957A
:1011900061957F4F8F4F9F4F9923A9F0F92F96E9C3
:1011A000BB279395F695879577956795B795F11138
:1011B000F8CFFAF4BB0F11F460FF1BC06F5F7F4FD5
:1011C0008F4F9F4F16C0882311F096E911C07723E7
:1011D00021F09EE8872F762F05C0662371F096E8F0
:1011E000862F70E060E02AF09A95660F771F881FBF
:1011F000DAF7880F9695879597F90895F9D080F0DA
:101200009F3740F491110EF00BC160E070E080E870
:101210009FEB089526F41B16611D711D811D79C079
:1012200093C0A5D018F011F0A9D038F49DC0F8C033
:10123000E92FBCD0B0F35523C9F3E7FB621773075E
:1012400084079507A8F199F3E92FFF2788232AF04F
:101250003197660F771F881FDAF7952F552744239C
:1012600032F091505040220F331F441FD2F7BB275A
:10127000E91BF50B621B730B840BB109C1F222F45D
:10128000620F731F841FB11D31972AF0660F771FFD
:10129000881FBB1FEFCF915050405AF041F0882378
:1012A00032F0660F771F881F91505040C1F7939519
:1012B0004BC08695779567959F5FD9F7F8CF990FC3
:1012C0000008550FAA0BE0E8FEEF16161706E80710
:1012D000F907C0F012161306E407F50798F0621B31
:1012E000730B840B950B39F40A2661F0232B242B06
:1012F000252B21F408950A2609F4A140A6958FEF25
:10130000811D811D089597F99F6780E870E060E076
:101310000895882371F4772321F09850872B762F36
:1013200007C0662311F499270DC09051862B70E0F9
:1013300060E02AF09A95660F771F881FDAF7880F0A
:101340009695879597F908959F3F49F0915028F415
:10135000869577956795B7959F5F80389F4F880FE3
:101360009695879597F908959FEF80EC089500244E
:101370000A941616170618060906089500240A94FA
:1013800012161306140605060895092E0394000C80
:1013900011F4882352F0BB0F40F4BF2B11F460FF0F
:1013A00004C06F5F7F4F8F4F9F4F089557FD905838
:1013B000440F551F59F05F3F71F04795880F97FB19
:1013C000991F61F09F3F79F08795089512161306D3
:1013D0001406551FF2CF4695F1DF08C01616170602
:1013E0001806991FF1CF8695710561050894089537
:1013F000E5DFA0F0BEE7B91788F4BB279F3860F49B
:101400001616B11D672F782F8827985FF7CF86951E
:1014100077956795B11D93959639C8F30895E8942B
:10142000BB2766277727CB0197F9089548DF08F493
:101430008FEF08950BD0A9CF9ADF28F09FDF18F027
:10144000952309F060CF90CF1124EACFAFDFA0F34E
:10145000959FD1F3950F50E0551F629FF001729F49
:10146000BB27F00DB11D639FAA27F00DB11DAA1F68
:10147000649F6627B00DA11D661F829F2227B00DB5
:10148000A11D621F739FB00DA11D621F839FA00D40
:10149000611D221F749F3327A00D611D231F849F90
:1014A000600D211D822F762F6A2F11249F575040E7
:1014B0008AF0E1F088234AF0EE0FFF1FBB1F661F82
:1014C000771F881F91505040A9F79E3F510570F03B
:1014D0001ACFA6CF5F3FECF3983EDCF38695779565
:1014E0006795B795F795E7959F5FC1F7FE2B880F36
:1014F000911D9695879597F90895629FD001739FE6
:10150000F001829FE00DF11D649FE00DF11D929F9F
:10151000F00D839FF00D749FF00D659FF00D9927DE
:10152000729FB00DE11DF91F639FB00DE11DF91F02
:10153000BD01CF0111240895A1E21A2EAA1BBB1BE5
:10154000FD010DC0AA1FBB1FEE1FFF1FA217B3078F
:10155000E407F50720F0A21BB30BE40BF50B661FA5
:10156000771F881F991F1A9469F760957095809569
:1015700090959B01AC01BD01CF010895EE0FFF1FB7
:0C1580000590F491E02D0994F894FFCF41
:10158C00010000000000007F4300009643000000B3
:10159C003F000000000100000002000000000000FD
:1015AC0000F401DB028A01BB019B01E40100000095
:0615BC00009902F301009A
:00000001FF
